:100000000C9489050C94B1050C94B1050C94B105C0
:100010000C94B1050C94B1050C94B1050C94B10588
:100020000C94B1050C94B1050C94B1050C94B10578
:100030000C94B1050C94B1050C94B1050C94B10568
:100040000C94C6190C94B1050C9494190C946E1967
:100050000C94B1050C94B1050C94B1050C94B10548
:100060000C94101A0C94B10500000000003E5B4F88
:100070005B3E3E6B4F6B3E1C3E7C3E1C183C7E3C08
:10008000181C577D571C1C5E7F5E1C00183C180016
:10009000FFE7C3E7FF0018241800FFE7DBE7FF30A6
:1000A000483A060E2629792926407F050507407F14
:1000B00005253F5A3CE73C5A7F3E1C1C08081C1C87
:1000C0003E7F14227F22145F5F005F5F06097F017D
:1000D0007F006689956A606060606094A2FFA29468
:1000E00008047E040810207E201008082A1C080836
:1000F0001C2A08081E101010100C1E0C1E0C303884
:100100003E3830060E3E0E06000000000000005F84
:1001100000000007000700147F147F14242A7F2AA0
:100120001223130864623649562050000807030062
:10013000001C2241000041221C002A1C7F1C2A08AE
:10014000083E080800807030000808080808000011
:1001500060600020100804023E5149453E00427F85
:10016000400072494949462141494D331814127FD4
:100170001027454545393C4A494931412111090774
:100180003649494936464949291E000014000000F5
:1001900040340000000814224114141414140041C7
:1001A00022140802015909063E415D594E7C121184
:1001B000127C7F494949363E414141227F414141BC
:1001C0003E7F494949417F090909013E4141517337
:1001D0007F0808087F00417F41002040413F017FA8
:1001E000081422417F404040407F021C027F7F0470
:1001F00008107F3E4141413E7F090909063E4151B9
:10020000215E7F09192946264949493203017F01A8
:10021000033F4040403F1F2040201F3F4038403FA9
:10022000631408146303047804036159494D4300BF
:100230007F4141410204081020004141417F0402F6
:10024000010204404040404000030708002054548D
:1002500078407F284444383844444428384444286B
:100260007F385454541800087E090218A4A49C78BE
:100270007F0804047800447D40002040403D007F1A
:100280001028440000417F40007C047804787C08FA
:100290000404783844444438FC18242418182424CE
:1002A00018FC7C08040408485454542404043F44B3
:1002B000243C4040207C1C2040201C3C4030403CE2
:1002C00044281028444C9090907C4464544C440042
:1002D00008364100000077000000413608000201A6
:1002E0000204023C2623263C1EA1A161123A404092
:1002F000207A38545455592155557941225454780F
:1003000042215554784020545579400C1E527212A7
:100310003955555559395454545939555454580030
:1003200000457C410002457D420001457C407D1234
:1003300011127DF0282528F07C5455450020545496
:100340007C547C0A097F4932494949323A44444441
:100350003A324A4848303A4141217A3A424020787C
:10036000009DA0A07D3D4242423D3D4040403D3C7D
:1003700024FF2424487E4943662B2FFC2F2BFF09A2
:1003800029F620C0887E0903205454794100004496
:100390007D413048484A32384040227A007A0A0A81
:1003A000727D0D19317D2629292F282629292926F4
:1003B00030484D4020380808080808080808382F39
:1003C00010C8ACBA2F102834FA00007B00000814C3
:1003D0002A142222142A14085500550055AA55AA99
:1003E00055AAFF55FF55FF000000FF00101010FF39
:1003F00000141414FF001010FF00FF1010F010F094
:10040000141414FC001414F700FF0000FF00FF1484
:1004100014F404FC141417101F10101F101F1414D0
:10042000141F00101010F0000000001F101010101A
:100430001F10101010F010000000FF10101010100E
:1004400010101010FF10000000FF140000FF00FF4C
:1004500000001F10170000FC04F4141417101714E8
:1004600014F404F40000FF00F7141414141414140A
:10047000F700F7141414171410101F101F1414147D
:10048000F4141010F010F000001F101F0000001FE7
:1004900014000000FC140000F010F01010FF10FF1A
:1004A000141414FF141010101F00000000F010FFAF
:1004B000FFFFFFFFF0F0F0F0F0FFFFFF0000000093
:1004C00000FFFF0F0F0F0F0F3844443844FC4A4A17
:1004D0004A347E02020606027E027E0263554941CC
:1004E000633844443C04407E201E2006027E020203
:1004F00099A5E7A5991C2A492A1C4C7201724C3017
:100500004A4D4D303048784830BC625A463D3E49ED
:100510004949007E0101017E2A2A2A2A2A44445F91
:10052000444440514A444040444A51400000FF0185
:1005300003E080FF000008086B6B08361236243693
:10054000060F090F060000181800000010100030F8
:1005500040FF0101001F01011E00191D1712003C80
:100560003C3C3C0000000000000103070F1F3F7FE0
:100570000080C0E0F0F8FCFE00000000240027002E
:100580002A000000000023002600290000000008C7
:10059000000201000003040700000000000000004A
:1005A000DB40A4A62EAF2000A1C8D300408DAED55D
:1005B00080A80102040810204080010204081020D5
:1005C00001020408102000000000250028002B0074
:1005D00004040404040404040202020202020303E9
:1005E000030303030000600000000000000000009F
:1005F0000000000000E0000000000000000000001B
:1006000000000001E0000000000000000000000009
:10061000000001F0000000000000000000000000E9
:100620000003F000000000000000000000000000D7
:1006300007F00000000000000000000000000007BC
:10064000F8000000000000000000000000000FF8AB
:1006500000000003C0007E000001E0007F0FF800F2
:10066000000003C000FE000001E000FFEFF8000002
:100670000003C000FE000001E000FFFFF8000000E2
:1006800003C000F00000000F007FFE7FC0000003E9
:10069000C000F00000000F003FFE7FF83FF1FBCFED
:1006A000FCFEF3BC3DEFE01FFE7FFF7FFBFFDFFEA4
:1006B000FEFFBC3DEFE01FC6FFFF7FFBFFDFFEFE3E
:1006C000FFBC3DEFE00FE3C7FE787BC3DE1EF0FF0B
:1006D000BC3DEF0007FF87FC787BC3DE1EF0F83CD3
:1006E0003DEF0001FFFFF0007BC3C01EF0F03C3D7A
:1006F000EF0001F37FE03FFBC3CFFEF0F03C3DEFA6
:100700000003E33F807FFBC3DFFEF0F03C3DEF00E2
:1007100007E73C00787BC3DE1EF0F03C3DEF0007AE
:10072000FFBE00787BC3DE1EF0F03C3DEF0007FF0C
:10073000FE00787BC3DE1EF0F03C3DEF000FFFFEB5
:10074000007FFBFFDFFEF0F03FFDEFE00FFFFF005B
:100750007FFBFFDFFEF0F03FFDEFE00FF9FF003E13
:1007600079F9CF9EF0F01F3DE7E01FF1FF00000098
:100770000000000000000000001F80FF007FFFFF5E
:10078000FFFFFFFFFFFFFFE01C007F007FFFFFFF79
:10079000FEB46D888D18E000001F007FFFFFFFFE94
:1007A00095AD7DB577E000000F007FFFFFFFFEA550
:1007B000AD9D8D19E0000006007FFFFFFFFEB5AD87
:1007C000EDB57EE0000000000001800000000000A8
:1007D000000000000380000000000000000000078F
:1007E000C000000000000000000007C00000000082
:1007F00000000000000FC00000000000000000002A
:100800001FE00000000000000000001FE0000000EA
:100810000000000000003FE00000000000000000B9
:10082000003FF00000000000000000007FF000002A
:1008300000000000001FF87FF00000000000000032
:100840003FFE7FF0000000000000003FFF7FF0004F
:100850000000000000001FFFFBE00000000000009F
:10086000000FFFF9FFC00000000000000FFFF9FFBC
:10087000F800000000000007FFF1FFFF000000008B
:10088000000003FC73FFFF80000000000001FE3F3A
:10089000FFFF80000000000000FF1E0FFF000000AF
:1008A000000000007FFE1FFC000000000000003F71
:1008B000FFFFF8000000000000000FDFFFE0000075
:1008C00000000000001F19FFC00000000000000031
:1008D0003F3CFF00000000000000007E7CF80000AC
:1008E0000000000000007FFE7C000000000000000F
:1008F00000FFFFFC0000000000000000FFFFFE0002
:1009000000000000000000FFFFFE000000000000EB
:100910000001FFEFFE0000000000000001FFCFFE1D
:100920000000000000000003FF07FE0000000000C0
:10093000000003FC07FE0000000000000003F003BD
:10094000FE00000000000000018000FE000000002A
:100950000000000000007E00000000000000000019
:10096000003E000000000000000000000C0000003D
:10097000000000078000FC000003C00000000780AA
:1009800001FC000003C0000000078001FC00000320
:10099000C0000000078001E00000001E000000070A
:1009A0008001E00000001E007FE3F79FF9FDE7787B
:1009B0007BDFC0FFF7FFBFFDFDFF787BDFC0FFF7E8
:1009C000FFBFFDFDFF787BDFC0F0F787BC3DE1FF97
:1009D000787BDE00F0F787BC3DE1F0787BDE00003D
:1009E000F787803DE1E0787BDE007FF7879FFDE1C0
:1009F000E0787BDE00FFF787BFFDE1E0787BDE007B
:100A0000F0F787BC3DE1E0787BDE00F0F787BC3D86
:100A1000E1E0787BDE00F0F787BC3DE1E0787BDE4B
:100A200000FFF7FFBFFDE1E07FFBDFC0FFF7FFBF87
:100A3000FDE1E07FFBDFC07CF3F39F3DE1E03E7B27
:100A4000CFC00000000000000000000000FFFFFF1A
:100A5000FFFFFFFFFFFFFFC0FFFFFFFFFD68DB1190
:100A60001A31C0FFFFFFFFFD2B5AFB6AEFC0FFFFEB
:100A7000FFFFFD4B5B3B1A33C0FFFFFFFFFD6B5BCE
:100A8000DB6AFDC020202020202030352D30332D82
:100A90003232002020202020447261676F6F6E2068
:100AA00076312E31002020202020436F6E74726F2B
:100AB0006C6C657200202020202054696E792052D1
:100AC00065666C6F77004572726F72002C002C00A7
:100AD00043005443204572726F7200353000313547
:100AE000300032353000474F4F4E0054696D652C51
:100AF000536574706F696E742C6F76656E54656D96
:100B0000702C4F7574707574002200FF21002F1B2C
:100B10003D2411241FBECFEFD8E0DEBFCDBF11E0D2
:100B2000A0E0B1E0E4EAF0E502C005900D92A83A39
:100B3000B107D9F724E0A8EAB1E001C01D92AB33B8
:100B4000B207E1F715E0C8E8D5E004C02197FE013F
:100B50000E940E27C738D107C9F70E94011C0C94C8
:100B600045280C940000089508950895EF92FF928F
:100B70000F931F93CF93DF938C017B01D0E0C0E0F4
:100B8000F701EC0FFD1F6491662361F0D801ED9130
:100B9000FC910190F081E02DC8010995892B11F09D
:100BA0002196EECFCE01DF91CF911F910F91FF9053
:100BB000EF900895AF92BF92CF92DF92EF92FF92A3
:100BC0000F931F93CF93DF936C017B018B01040F75
:100BD000151FEB015E01AE18BF08C017D10759F011
:100BE0006991D601ED91FC910190F081E02DC60153
:100BF0000995892B79F7C501DF91CF911F910F914D
:100C0000FF90EF90DF90CF90BF90AF900895FC01E0
:100C1000538D448D252F30E0842F90E0821B930B61
:100C2000541710F0CF96089501970895FC01918D07
:100C3000828D981761F0A28DAE0FBF2FB11D5D960A
:100C40008C91928D9F5F9F73928F90E008958FEFAC
:100C50009FEF0895FC01918D828D981731F0828D60
:100C6000E80FF11D858D90E008958FEF9FEF0895B7
:100C7000FC01918D228D892F90E0805C9F4F821B1B
:100C800091098F73992708958AE093E00E943806AE
:100C900021E0892B09F420E0822F089580E090E084
:100CA000892B29F00E94440681110C9400000895BC
:100CB000FC01A48DA80FB92FB11DA35ABF4F2C91D1
:100CC000848D90E001968F739927848FA689B789C8
:100CD0002C93A089B1898C91837080648C93938DBF
:100CE000848D981306C00288F389E02D80818F7D62
:100CF00080830895EF92FF920F931F93CF93DF931A
:100D0000EC0181E0888F9B8D8C8D98131AC0E88947
:100D1000F989808185FF15C09FB7F894EE89FF8916
:100D20006083E889F98980818370806480839FBFB4
:100D300081E090E0DF91CF911F910F91FF90EF90B4
:100D40000895F62E0B8D10E00F5F1F4F0F731127C4
:100D5000E02E8C8D8E110CC00FB607FCFACFE889FF
:100D6000F989808185FFF5CFCE010E945806F1CF29
:100D7000EB8DEC0FFD2FF11DE35AFF4FF0829FB773
:100D8000F8940B8FEA89FB8980818062CFCFCF9363
:100D9000DF93EC01888D8823B9F0AA89BB89E889A3
:100DA000F9898C9185FD03C0808186FD0DC00FB649
:100DB00007FCF7CF8C9185FFF2CF808185FFEDCFC7
:100DC000CE010E945806E9CFDF91CF91089583307C
:100DD00081F028F4813099F08230A9F008958730AD
:100DE000A9F08830C9F08430B1F4809180008F7D03
:100DF00003C0809180008F7780938000089584B530
:100E00008F7784BD089584B58F7DFBCF8091B0002E
:100E10008F778093B00008958091B0008F7DF9CFD7
:100E2000CF93DF93282F30E0F901E457FA4F8491F4
:100E3000F901EE54FA4FD491F901E053FA4FC491FD
:100E4000CC23A1F081110E94E706EC2FF0E0EE0F19
:100E5000FF1FEE57FA4FA591B491EC91ED2381E07D
:100E600090E009F480E0DF91CF91089580E090E078
:100E7000FACF1F93CF93DF93282F30E0F901E45787
:100E8000FA4F8491F901EE54FA4FD491F901E053ED
:100E9000FA4FC491CC23A9F0162F81110E94E706C6
:100EA000EC2FF0E0EE0FFF1FEA53FA4FA591B4913B
:100EB0008FB7F894EC91111108C0D095DE23DC9324
:100EC0008FBFDF91CF911F910895DE2BF8CFCF9385
:100ED000DF9390E0FC01EE54FA4F249180539A4F37
:100EE000FC0184918823D1F090E0880F991FFC01C8
:100EF000E858FA4FA591B491FC01EA53FA4FC59115
:100F0000D49161110EC09FB7F8948C91E22FE095B7
:100F10008E238C932881E223E8839FBFDF91CF91BA
:100F200008958FB7F894EC91E22BEC938FBFF6CF36
:100F30008330910528F0880F991F04970197F1F7E6
:100F40000895CF92DF92EF92FF920F931F93CF936A
:100F5000DF932091A8033091A903232B79F08EBD54
:100F60000DB407FEFDCFDEB48D2DDF91CF911F9123
:100F70000F91FF90EF90DF90CF9008952091B003F4
:100F80003091B103C1E0232B09F0C0E8CC24C39415
:100F9000982F9C2309F0C12CD82F2091AC033091BD
:100FA000AD034091AE035091AF0360E271EA87E078
:100FB00090E00E948624122FDD2E00E0E22EF12C1C
:100FC000112319F0C7010E9498078091B203877F0F
:100FD00009F054C08091B5038F3FA1F09D2F9C2351
:100FE00081E009F480E08C1569F0E091B703F0919D
:100FF000B8038091BF039923D9F19081892B808315
:10100000CC24C394E091B903F091BA03808190910C
:10101000C103892B8083112319F0C7010E9498070F
:101020008091B6038F3F51F0E091BB03F091BC0378
:1010300080819091C003892309F00C2BE091B903C2
:10104000F091BA0390818091C103809589238083B8
:101050008091B6038F3F09F0D02E8091B00390911C
:10106000B103892B09F047C0CC0FC111A9CF7CCFA8
:101070009081809589238083C12CC4CFE091B903EE
:10108000F091BA0380819091C103892B8083112351
:1010900019F0C7010E9498078091B5038F3F61F056
:1010A000E091B703F091B8038091BF039D2F9C237B
:1010B000F1F09081892B8083E091B903F091BA031C
:1010C00090818091C1038095892380838091B603AC
:1010D0008F3F09F4BDCFE091BB03F091BC03808149
:1010E0009091C003892309F4B3CF0C2BB1CF908129
:1010F00080958923E0CFC695B8CF3FB7F89480910B
:101100005E0290915F02A0916002B091610226B5EB
:10111000A89B05C02F3F19F00196A11DB11D3FBF2F
:10112000BA2FA92F982F8827BC01CD01620F711DFE
:10113000811D911D43E0660F771F881F991F4A95F7
:10114000D1F708958F929F92AF92BF92CF92DF9284
:10115000EF92FF924B015C010E947D086B017C01C4
:101160000E947D086C197D098E099F09683E7340B5
:1011700081059105A8F321E0821A9108A108B10820
:1011800088EEC80E83E0D81EE11CF11C8114910486
:10119000A104B10429F7FF90EF90DF90CF90BF90AA
:1011A000AF909F908F9008952FB7F89460915A0256
:1011B00070915B0280915C0290915D022FBF089557
:1011C0002F923F924F925F926F927F928F929F9257
:1011D000AF92BF92CF92DF92EF92FF920F931F9345
:1011E000CF93DF93CDB7DEB728970FB6F894DEBF65
:1011F0000FBECDBF2B013C0149015A010E94D4080A
:101200000091330410913404209135043091360458
:10121000601B710B820B930B0E94D12520E030E004
:101220004AE754E40E9429256B017C01A301920145
:10123000C501B4010E94B7244B015C012091130445
:101240003091140440911504509116040E94882690
:101250006B837C838D839E8320E030E040E05FE3FE
:10126000C701B6010E94242587FF22C020911704E0
:10127000309118044091190450911A04C701B60125
:101280000E948826A50194010E94882620912704A7
:10129000309128044091290450912A040E94B824D6
:1012A00060932704709328048093290490932A0460
:1012B0003090230420902404809125048983809118
:1012C00026048A8380911F048F838091200488875D
:1012D000109121040091220490902704A0902804EA
:1012E000B090290480902A04292D3A2D4B2D582D99
:1012F0006F81782F812F902F0E94832618160CF46F
:1013000099C0292D3A2D4B2D582D632D722D898191
:101310009A810E94242587FD92C0892D9A2DAB2D9C
:10132000B82D8093270490932804A0932904B093A8
:101330002A04A701960160E070E080E89FE30E9424
:10134000292520911B0430911C0440911D045091CB
:101350001E040E9488266B017C01A301920160910A
:101360002B0470912C0480912D0490912E040E94E6
:10137000B7249B01AC01C701B6010E9488266B010E
:101380007C01292D3A2D4B2D582D6B817C818D812F
:101390009E810E94B8249B01AC01C701B6010E9446
:1013A000B8246B017C019B01AC016F817885812F92
:1013B000902F0E948326181674F09601A701632DC2
:1013C000722D89819A810E94242587FD3DC0CF829C
:1013D000D8861E2D0F2D40922B0450922C04609223
:1013E0002D0470922E040E94D408609333047093ED
:1013F000340480933504909336046F817885812F6F
:10140000902F28960FB6F894DEBF0FBECDBFDF91A8
:10141000CF911F910F91FF90EF90DF90CF90BF90F1
:10142000AF909F908F907F906F905F904F903F9084
:101430002F9008959F80A884B12E802E6ECF932C7C
:10144000A22CB9808A8069CF3F82288619810A81BF
:10145000C2CFEF92FF920F931F93CF93DF93EC01D4
:10146000EC80FD806E157F050CF070C057FF04C046
:10147000240F351F50E040E08E819F81FA01E20F7A
:10148000F31F8E179F071CF49C01241B350B1216AB
:1014900013060CF05BC0922F842F86958695869557
:1014A0008E9DD0018F9DB00D11246A0F7B1FAF8DD3
:1014B000B8A1A60FB71F477049F188E0841B482FD9
:1014C000682F70E0FB01E059FA4FE491281708F00B
:1014D00063C0621B71092FEF30E002C0359527957C
:1014E0006A95E2F7E2230130110539F0B0F10230DC
:1014F000110561F58C91E82702C08C91E82BEC93E3
:10150000941720F12C813D81A20FB31FE92FE41B1A
:10151000E83078F00230110521F58E2F9C919095DE
:101520009C932C813D81A20FB31F88508830B0F767
:10153000E770EE2359F0F0E0E859FA4FE4910130FA
:101540001105F9F010F10230110519F1DF91CF9179
:101550001F910F91FF90EF900895E0958C91E823F3
:10156000CECF81E00115110509F480E081959E2F11
:101570008C932C813D81A20FB31F98509830C0F7F7
:10158000D7CF8C91E82BEC93E1CFE0958C91E823B9
:10159000FACF8C91E827F7CF0130110509F4ADCFD0
:1015A000E0F20230110509F4A5CFAE0DBF1DAECF9C
:1015B0000F931F93CF93DF9377FF04C0260F371F3E
:1015C00070E060E0DC011496CD91DC91FB01E20F4C
:1015D000F31FCE17DF071CF49E01261B370B1216D4
:1015E00013064CF5FA0157FD3796A3E0F595E795FC
:1015F000AA95E1F7EC9FD001ED9FB00DFC9FB00DD7
:1016000011246A0F7B1FDC015F96ED91FC91E60FC0
:10161000F71F4770552781E090E001C0880F4A9579
:10162000EAF7482F0130110559F0A8F02E0F3F1F9F
:1016300002301105E1F0DF91CF911F910F910895D4
:101640002E0F3F1FE217F307B1F38191DF011197CE
:10165000842B8C93F7CF80952E0F3F1FE217F30753
:1016600051F39191DF01119798239C93F7CFE217E3
:10167000F30709F38191DF01119784278C93F7CF4A
:101680000F931F93FA01DC0156964C915697423006
:10169000E9F04330A1F1413061F514964D915C9130
:1016A000DA01AE1BBF0BFD01E21BF30B77FD0BC094
:1016B000DC0116964D915C916417750724F4AB011B
:1016C000BF010E94D80A1F910F91089514964D9161
:1016D0005C91DA01A61BB70BBD0161507109DC01F9
:1016E00016964D915C91DA01AE1BBF0BFD01E21B1A
:1016F000F30B77FDE8CFAF010E94290AE4CF1696DD
:101700004D915C91DA01A61BB70BBD0161507109C7
:10171000CDCF0F931F93FA01DC0156964C9156974B
:101720004230A9F0433091F1413019F514964D91B2
:101730005C91DA01AE1BBF0BFD013197F7FD04C0D0
:10174000AB01BF010E94290A1F910F9108951496C1
:101750004D915C91DA01A61BB70BBD01DC01169619
:101760004D915C91DA01AE1BBF0BFD013197621BFD
:10177000730BF7FDE9CFDC0116964D915C91E417F0
:10178000F50714F7AF010E94D80ADECF16964D91E7
:101790005C91DA01A61BB70BBD01621B730BCECFA8
:1017A000FC0177FD64C080859185681779070CF08E
:1017B0005EC057FD5CC082859385481759070CF0C1
:1017C00056C086898230B1F0833029F1813041F4EE
:1017D00084819581841B950BAB01BC01615071091B
:1017E0002130310509F108F443C02230310509F4F4
:1017F00063C0089584819581DC01A61BB70BBD01F0
:101800006150710986819781DC01A41BB50BAD0184
:1018100041505109E5CF86819781861B970BBA010C
:10182000AC0141505109DCCFCA0157FD0796A3E036
:1018300095958795AA95E1F7A481B5818A9F900136
:101840008B9F300D9A9F300D1124620F731F078CF0
:10185000F0A1E02DE60FF71F4770552721E030E09B
:1018600001C0220F4A95EAF78081822B8083089578
:10187000CA0157FD079633E0959587953A95E1F7AC
:10188000A481B5818A9F90018B9F300D9A9F300D66
:101890001124620F731F078CF0A1E02DE60FF71FD4
:1018A0004770552781E090E001C0880F4A95EAF71C
:1018B000809590818923DACFCA0157FD079623E0EE
:1018C000959587952A95E1F7A481B5818A9F900126
:1018D0008B9F300D9A9F300D1124620F731F078C60
:1018E000F0A1E02DE60FF71F4770552721E030E00B
:1018F00001C0220F4A95EAF780818227B7CF089569
:101900008EBD00000DB407FEFDCF8EB508958CBDD1
:101910009DBD0895CF93DF93C62FD82FD0688091B7
:10192000A8039091A903892B41F0E091AA03F091BB
:10193000AB03808191810E94870C60E08091B303AA
:101940000E9439078D2F0E94A1078C2F0E94A107AA
:1019500061E08091B303DF91CF910C943907EF924E
:10196000FF920F931F93CF93DF93EC017B018A01CA
:101970008091A8039091A903892B41F0E091AA03DB
:10198000F091AB03808191810E94870C60E080918F
:10199000B3030E94390788810E94A107E7010E0D59
:1019A0001F1D0C171D0729F08FEF0E94A1078993B7
:1019B000F8CF61E08091B3030E94390781E0DF91A5
:1019C000CF911F910F91FF90EF900895CF93DF93E8
:1019D00000D0CDB7DEB71A82898341E050E0BE0166
:1019E0006E5F7F4FCE0101960E94AF0C8A810F90EF
:1019F0000F90DF91CF91089581E00E94E60C807FE7
:101A0000682F636081E00C948A0C0895FC01637078
:101A1000668B8481958126813781613039F063300E
:101A200029F091878087338722870895318720871F
:101A30009387828708952F923F924F925F926F9281
:101A40007F928F929F92AF92BF92CF92DF92EF924E
:101A5000FF920F931F93CF93DF93CDB7DEB76A97B3
:101A60000FB6F894DEBF0FBECDBF9A8F898F7A83F1
:101A700069834A01D22E18870F833701BC2CDC0101
:101A800059962D913C915A972115310509F015C1B0
:101A900018968D919C911997681779070CF0D7C10A
:101AA0001A968D919C91481759070CF0D0C14C2C77
:101AB000512CB6E0CB9E600D711D11247C876B8785
:101AC000161617060CF0C3C1EA2DF0E0FA87E98775
:101AD00093E0EE0FFF1F9A95E1F7F88BEF87CF01A8
:101AE000840F951F181619060CF0B1C1A98DBA8D77
:101AF00058968C91811104C0BFEABD1508F4D394A7
:101B0000A98DBA8DED91FC9111970284F385E02D9A
:101B1000CD010995B5E0DB9EC0011124E981FA8170
:101B2000FC83EB83312C212C9C0128593F4F388FAB
:101B30002F8B4A2D50E05E8B4D8BEF89F88DE20D97
:101B4000F31D44919E828D82D12CC12C69817A81B2
:101B5000620D731D7A8B698B842F90E09C8B8B8B2D
:101B6000E98DFA8DA081B18140FF82C0F1E0BF1202
:101B70006FC0AF126DC01C96ED91FC912F8138851E
:101B8000A4014C0D5D1D69897A89898D9A8D09950D
:101B9000EB89FC89F595E7954E2F5FEFC51AD50ABD
:101BA0006D817E818D899E89680F791F7E836D830B
:101BB00098E0C916D10481F6AFEF2A1A3A0AEB81F0
:101BC000FC81E40DF51DFC83EB83F5E02F16310459
:101BD00009F0B3CF2F81388526153705B9F0A98DC7
:101BE000BA8DED91FC91B1E0BB1257C0AB1255C05C
:101BF00069817A816B5F7F4F0088F189E02D8301D5
:101C000028E030E0A401898D9A8D0995A98DBA8DBF
:101C1000ED91FC9111970688F789E02DCD016A9628
:101C20000FB6F894DEBF0FBECDBFDF91CF911F91ED
:101C30000F91FF90EF90DF90CF90BF90AF909F906B
:101C40008F907F906F905F904F903F902F9009946E
:101C50001E96ED91FC91EF80F88409851A8592011A
:101C60004D815E816B817C81898D9A8D099590CFA4
:101C70002F8138852615370509F48ACF31E0B31254
:101C800007C0A31205C01C96ED91FC91930178CF7B
:101C90001E96ED91FC917301E0CF6B857C856419F4
:101CA00075090684F785E02D73010F851889920167
:101CB000A401898D9A8D0995A9CFF9013496949143
:101CC000329745915491D91AB7E0DB9E400D511DD2
:101CD0001124F901259134913C8B2B8BFA0125902D
:101CE0003490FA013296749031963491398B329651
:101CF00064903196449041E04C1518F04A1508F074
:101D00007FC0662D062C000C770B7C836B83842DA3
:101D1000042C000C990B9E838D83A98DBA8DED91B7
:101D2000FC9111970284F385E02DCD010995512C8A
:101D3000D12CC12CEA2DF0E0FA87E9872B2D30E079
:101D40003C872B87A401440D511D47FC5A95588FA1
:101D50004F8B69817A81660D711D67FC7A957E874C
:101D60006D877989C71608F051CF2C2D30E04D8151
:101D70005E81420F531FA985BA854A9FC0014B9FC0
:101D8000900D5A9F900D1124FC01E80DF91DF88B60
:101D9000EF87852D612C4F89588D420F531F5E8B25
:101DA0004D8B671408F050C044244394480E87704C
:101DB00041F4C1010196EB89FC89E20DF31DD49039
:101DC0001C01D7FE19C0A98DBA8DED91FC91662D2D
:101DD00070E0B1E0BB1219C0AB1217C02D853E8573
:101DE000620F731F0484F585E02D2F8138854D899E
:101DF0005E89898D9A8D0995DD0C6394842DD1CFF0
:101E00001E821D821C821B8288CF4B815C81640FE5
:101E1000751FAB85BC856A9FC0016B9F900D7A9F33
:101E2000900D112469817A81680F791F0684F785E6
:101E3000E02DEF80F88409851A859D014F8558892A
:101E4000898D9A8D0995D8CF570CC3948ACF6A96FD
:101E50000FB6F894DEBF0FBECDBFDF91CF911F91BB
:101E60000F91FF90EF90DF90CF90BF90AF909F9039
:101E70008F907F906F905F904F903F902F9008953C
:101E80008F929F92AF92CF92EF92FF920F931F93F8
:101E9000CF93DF93EC01262F898D9A8D009709F05F
:101EA00051C06A30D1F41D861C868D8948E0849F1C
:101EB000900111248E859F85820F931F9F878E87A7
:101EC00081E090E0DF91CF911F910F91FF90EF9013
:101ED000CF90AF909F908F9008956D3089F3CC880C
:101EE000AD888F898823C1F08C859D8536E0C39E9F
:101EF000800D911D1124488559854817590764F4B0
:101F00004E855F851D861C8638E0A39EC001112486
:101F1000840F951F9F878E87EA88FB880889198917
:101F20004E855F856C857D85CE010E941B0D2C89B9
:101F30008C859D8546E0249F800D911D11249D87F1
:101F40008C87BECF6A3069F41D861C86FC013896EA
:101F5000E4912D898E859F85E29F800D911D11242E
:101F6000ADCF6D3009F4ACCFFC01349634916317DA
:101F700008F4A6CF3296E491E61708F4A1CFFC014D
:101F8000329685909490462F431B342F47E0349F20
:101F9000800C911C1124F401329634913196E49115
:101FA0003323A9F1EE2399F1CC88F4013596E4911D
:101FB000AD884F89442301F10E2E000CFF0BE30F77
:101FC000F11DCE9EA001CF9E500D11246C857D8504
:101FD000460F571F68857985641775076CF44E8521
:101FE0005F851D861C86FC013896E491AE9E400DEF
:101FF000511D11245F874E87EA88FB88088919895B
:102000004E855F856C857D85CE010E941B0DF40198
:102010003496E4912C898C859D85E29F800D911DDD
:1020200011248DCF6F927F928F929F92AF92BF9229
:10203000CF92DF92EF92FF920F931F93CF93DF9394
:10204000EC016B015A0139014801E881F9810284F0
:10205000F385E02D0995E881F9810288F389E02D67
:1020600087019301A501B601CE010995A501480D8F
:10207000591D41505109E881F9810288F389E02D09
:102080009301B601CE010995E881F9810088F189B3
:10209000E02D9401A501B601CE010995C60CD71C0F
:1020A000B60161507109E881F9810088F189E02D5C
:1020B0009401A501CE010995E881F9810688F78987
:1020C000E02DCE01DF91CF911F910F91FF90EF9006
:1020D000DF90CF90BF90AF909F908F907F906F9048
:1020E00009946F927F928F929F92AF92BF92CF92FC
:1020F000DF92EF92FF920F931F93CF93DF935C01D8
:10210000EB016A01490138018701DC01ED91FC9185
:102110006217730719F5641675062CF0962D872D36
:102120003A01C92ED82E9601261937092F5F3F4F45
:10213000048CF58DE02DA301BE01C5010995DF9149
:10214000CF911F910F91FF90EF90DF90CF90BF90B4
:10215000AF909F908F907F906F9008954615570590
:1021600091F42617370724F0892D4B01C22FD82F61
:102170009E01281939092F5F3F4F068CF78DE02DFE
:10218000A601B401DACF0284F385E02D0995D501CB
:10219000ED91FC910488F589E02D83019401A6015D
:1021A000BE01C5010995D501ED91FC910688F7891D
:1021B000E02DC501DF91CF911F910F91FF90EF901E
:1021C000DF90CF90BF90AF909F908F907F906F9057
:1021D0000994EF92FF920F931F93DC011A960D91D1
:1021E0001C911B9718962D913C911997ED91FC919C
:1021F00000A0F1A1E02D7B0150E040E070E060E044
:1022000009951F910F91FF90EF9008954F925F9263
:102210006F927F928F929F92AF92BF92CF92DF92F6
:10222000EF92FF920F931F93CF93DF936C012B01DB
:102230005A0139014801DC01ED91FC910284F385DA
:10224000E02D0995E201640C751CD601ED91FC911D
:10225000C615D7055CF40088F189E02D870194014B
:10226000A501BE01C60109952196EFCF0688F78921
:10227000E02DC601DF91CF911F910F91FF90EF905C
:10228000DF90CF90BF90AF909F908F907F906F9096
:102290005F904F9009948F929F92AF92BF92CF928E
:1022A000DF92EF92FF920F931F93CF93DF93EC0196
:1022B0005B014A016901E881F9810284F385E02D1F
:1022C000099595012C0D3D1D21503109E881F981B9
:1022D0000488F589E02D78018401A401B501CE01BF
:1022E0000995E881F9810688F789E02DCE01DF9113
:1022F000CF911F910F91FF90EF90DF90CF90BF9003
:10230000AF909F908F9009948F929F92AF92BF92BF
:10231000CF92DF92EF92FF920F931F93CF93DF93B1
:10232000EC015B014A0169017801E881F9810284CD
:10233000F385E02D0995C80CD91C860101501109BF
:10234000E881F9810488F589E02D9501A401B501A2
:10235000CE010995E881F9810688F789E02DCE0143
:10236000DF91CF911F910F91FF90EF90DF90CF9071
:10237000BF90AF909F908F900994EF92FF920F9330
:102380001F93DC01ED91FC9100A0F1A1E02D0995D6
:102390001F910F91FF90EF9008950F931F93DC0111
:1023A000ED91FC91068CF78DE02D09951F910F9111
:1023B00008950F931F93DC01ED91FC91048CF58D32
:1023C000E02D09951F910F910895DC01ED91FC918D
:1023D0000084F185E02D09943F924F925F926F92B5
:1023E0007F928F929F92AF92BF92CF92DF92EF92A5
:1023F000FF920F931F93CF93DF935C017B014A0100
:102400006901390187E0680E711C93E07594679447
:102410009A95E1F72B01400E511E10E000E0312C9F
:10242000D0E0C0E0CE0187709927330C892B59F496
:10243000FE0183E0F595E7958A95E1F7E00FF11F3E
:10244000E80DF91D349037FE0AC021E030E0A70105
:10245000B5016C0F7D1F83ED93E00E94E51121967D
:10246000CC16DD06F9F68FEFE81AF80A060D171DEF
:10247000E414F504A9F6DF91CF911F910F91FF901D
:10248000EF90DF90CF90BF90AF909F908F907F9014
:102490006F905F904F903F9008952F923F924F9290
:1024A0005F926F927F928F929F92AF92BF92CF92E4
:1024B000DF92EF92FF920F931F93CF93DF9300D0A1
:1024C00000D000D0CDB7DEB73C016A013E832D833A
:1024D000FC82EB825801A41AB50AB7FE03C0B1947E
:1024E000A194B1088D809E80861A970A97FE03C03A
:1024F0009194819491088A149B045CF0902F812F11
:102500000D811E819D838E839C2D8D2D6B01692FE6
:10251000782F0C151D055CF09D818E817E836D8367
:10252000692F782F902F812F8601C92ED82E160162
:10253000201A310A2B012D813E81421A530A57FE7F
:1025400003C0519441945108710137FE03C03FEF1D
:10255000E31AF30AF594E7948D819E818617970715
:102560005CF5A1E0B0E0BA83A983C016D1064CF1B6
:10257000D301ED91FC910484F585E02D2B813C8104
:10258000A8016D817E818A149B041CF04D815E81BF
:10259000B801C3010995E418F508F7FE0AC02D81BA
:1025A0003E8189819A81280F391F3E832D83E20C59
:1025B000F31C0F5F1F4FD9CF2FEF3FEF3A832983D3
:1025C000D4CF26960FB6F894DEBF0FBECDBFDF91F5
:1025D000CF911F910F91FF90EF90DF90CF90BF9020
:1025E000AF909F908F907F906F905F904F903F90B3
:1025F0002F900895089520910F02260F3327331F3F
:1026000021323105ECF420913302FC0190E080E0AE
:10261000243069F082E00895A0910F022191AC016D
:1026200041515E4FA40FB52FB11D2C930196861713
:1026300098F380910F02680F60930F0280E0089575
:1026400081E008951092330281E080933502109268
:10265000340261E082E10E94390761E083E10E9477
:102660003907E9EBF0E080818E7F808380818D7F68
:10267000808380E28093B80085E48093BC00089555
:10268000CF93DF9391E09093EE018823B9F0C0914E
:10269000B800D091BA008091BC008A7B8093BC00C6
:1026A00060E082E10E94390760E083E10E9439071F
:1026B0000E942213D093BA00C093B800DF91CF914B
:1026C0000895E091670280916602E81730F4F0E027
:1026D000E753FE4F808190E008958FEF9FEF0895BC
:1026E00090916702809166022FEF3FEF981748F4B0
:1026F000E92FF0E0E753FE4F208130E09F5F909399
:102700006702C90108958091660290916702891B52
:10271000990B0895CF92DF92EF92FF920F931F9340
:10272000CF93DF937C01CB018A01209109032223FF
:1027300089F0EB016B01C40ED51ECC15DD0569F0E7
:102740006991D701ED91FC910190F081E02DC701D5
:102750000995F3CF642F0E94FB12C801DF91CF913E
:102760001F910F91FF90EF90DF90CF900895CF933E
:10277000DF931F92CDB7DEB769832091090322232F
:10278000F9F020910603203258F021E030E0FC01FE
:102790003383228390E080E00F90DF91CF91089502
:1027A00080910703E82FF0E0E755FE4F9981908371
:1027B0008F5F809307038093060381E090E0ECCF66
:1027C00061E0CE0101960E94FB12F7CFCF92DF921B
:1027D000EF92FF920F931F93CF93DF93D091060355
:1027E00081E0D13208F09CC0C09108030E947D08AE
:1027F0006B017C018091330281116CC082E0809377
:10280000330281E0809335028FEF80933202109281
:102810005702D0935602A9EAB1E0E6E3F2E080E085
:10282000D8138DC01092580280915802CC0FC82B3B
:10283000C093580280913402813009F084C0109214
:1028400034020E947D086B017C01809158028093C4
:10285000BB008091EA019091EB01A091EC01B09155
:10286000ED01892B8A2B8B2BA1F00E947D08009112
:10287000EA011091EB012091EC013091ED016C190E
:102880007D098E099F09061717072807390708F4DD
:1028900042C08091BC0083FDD8CF85EC8093BC0002
:1028A0000E947D086B017C0180913302823009F423
:1028B0004CC0809132028F3F09F469C0809132028E
:1028C000803209F466C080913202803309F463C01B
:1028D00084E026C08091EA019091EB01A091EC0187
:1028E000B091ED01892B8A2B8B2B09F483CF0E94A9
:1028F0007D080091EA011091EB012091EC013091EB
:10290000ED016C197D098E099F0906171707280725
:10291000390708F06FCF8091E9010E94401385E0EC
:10292000109207031092060310920903DF91CF91D2
:102930001F910F91FF90EF90DF90CF9008959D91A0
:1029400091938F5F6DCF85EEA9CF8091EA01909131
:10295000EB01A091EC01B091ED01892B8A2B8B2B1F
:1029600009F4A2CF0E947D080091EA011091EB01C9
:102970002091EC013091ED016C197D098E099F09C0
:10298000061717072807390708F08ECFC4CF80E055
:10299000C7CF82E0C5CF83E0C3CFEF92FF920F9302
:1029A0001F93CF93DF937C01C62F8091F00390910A
:1029B000F103009709F459C02091F40331E03093FA
:1029C0000903209308031092070310920603DC0109
:1029D000ED91FC910190F081E02D60E00995870177
:1029E000EE24E394F12CD1E0C1508091F00390915A
:1029F000F103CF3F91F1B0E2EB16F104D8F00E9461
:102A0000E6138091F0039091F1032091F403D093A9
:102A10000903209308031092070310920603DC01B8
:102A2000ED91FC910190F081E02D60E00995EE249C
:102A3000E394F12C8091F0039091F103F8016491FB
:102A4000DC01ED91FC910190F081E02D0995BFEF43
:102A5000EB1AFB0A0F5F1F4FC7CFDF91CF911F917A
:102A60000F91FF90EF900C94E613E0910004F09129
:102A700001049081809106048095892380838701D9
:102A8000C15008F438C0F80184912091EE033091D0
:102A9000EF03232B29F00E94800C0F5F1F4FF0CF14
:102AA00028E030E040E8E091FC03F091FD039091D4
:102AB0000404582F5423D9F05081952B9083E09132
:102AC000FE03F091FF03908150910504952B9083B4
:102AD000E091FE03F091FF035081909105049095E1
:102AE00095239083469521503109E9F6D6CF508140
:102AF00090959523E3CFDF91CF911F910F91FF9098
:102B0000EF9008951F93CF93DF93EC018D8D9E8DF1
:102B1000009721F1162F29A131E03093090320936A
:102B200008031092070310920603DC01ED91FC915B
:102B30000190F081E02D60E009958D8D9E8DDC0186
:102B4000ED91FC910190F081E02D612F09958D8D23
:102B50009E8DDF91CF911F910C94E613ADA5BEA57C
:102B60009C918BA9809589238C938B8D9C8D892B2F
:102B700031F0862FDF91CF911F910C94800C28E0CB
:102B800030E080E8A9A5BAA599A9462F4823C1F04D
:102B90004C91942B9C93ABA5BCA59C914AA9942BDA
:102BA0009C93ABA5BCA54C919AA9909594239C931A
:102BB00086952150310931F7DF91CF911F9108950A
:102BC0004C9190959423E6CFDF92EF92FF920F9372
:102BD0001F93CF93DF938091F0039091F103892BA2
:102BE00009F498C0209108043091090440910A0426
:102BF00050910B0460E072E18AE790E00E94862425
:102C00002051310941095109569547953795279526
:102C10002093B80065E089E09BE00E94CD146091AC
:102C2000D703615083ED93E00E9482152091D90370
:102C30003091DA03C901079697FD079633E0959521
:102C400087953A95E1F72091D7033091D803829F79
:102C50008001839F100D929F100D1124C091F203EB
:102C6000D091F3038091F0039091F1030C0F1D1F9D
:102C7000009709F48FC02091F40331E030930903E9
:102C8000209308031092070310920603DC01ED91D4
:102C9000FC910190F081E02D60E40995EE24E3942D
:102CA000F12CDD24D3948091F0039091F1030C1763
:102CB0001D0709F446C0B0E2EB16F104D8F00E94FB
:102CC000E6138091F0039091F1032091F403D092E8
:102CD0000903209308031092070310920603DC01F6
:102CE000ED91FC910190F081E02D60E40995EE24D6
:102CF000E394F12C8091F0039091F1036991DC0150
:102D0000ED91FC910190F081E02D0995BFEFEB1A58
:102D1000FB0AC9CF8091EE039091EF03892B31F02C
:102D200080911104909112040E94870CE09102049A
:102D3000F09103049081809107048095892380831A
:102D400069CF0E94E6138091F0039091F103892BE3
:102D500009F461C020910C0430910D0440910E04DF
:102D600050910F0460E072E18AE790E00E948624AF
:102D700020513109410951095695479537952795B5
:102D80002093B800DF91CF911F910F91FF90EF90AA
:102D9000DF900895E0910004F0910104808190910A
:102DA0000604892B80830C171D0769F289912091F5
:102DB000EE033091EF03232B19F00E94800CF3CF28
:102DC00028E030E040E8E091FC03F091FD039091B1
:102DD0000404582F5423D9F05081952B9083E0910F
:102DE000FE03F091FF03908150910504952B908391
:102DF000E091FE03F091FF035081909105049095BE
:102E000095239083469521503109E9F6CCCF508126
:102E100090959523E3CFE0910204F0910304808123
:102E200090910704892B8083ADCF1F93CF93DF93BD
:102E3000EC01162F8D8D9E8D892BB1F12DA93EA908
:102E40004FA958AD60E072E18AE790E00E948624C5
:102E500020513109410951095695479537952795D4
:102E60002093B80066EA111167EACE010E9482152C
:102E70008D8D9E8D892B41F129AD3AAD4BAD5CAD69
:102E800060E072E18AE790E00E94862420513109D7
:102E90004109510956954795379527952093B800D4
:102EA000DF91CF911F9108958B8D9C8D892B21F0FF
:102EB0008EAD9FAD0E94870CEFA5F8A990818CA9DB
:102EC000809589238083CECFEFA5F8A980819CA926
:102ED000892B8083E5CF90E080E00895CF93CFB732
:102EE000F8948091A801811127C0EAEDF5E0849162
:102EF000ECEBF5E09491E82FF0E0EE0FFF1FE858BF
:102F0000FA4FA591B491EC91E92321F461E08AE0B4
:102F10000E94390761E08AE00E9467078CB58061F2
:102F20008CBD8CB580648CBD61E08DE00E9467072C
:102F300061E08BE00E9467078091A8018F5F80931A
:102F4000A801CFBFCF91089583E00E941007892B7D
:102F500041F082E00E941007892B31F090E080E080
:102F6000089581E090E0089582E090E00895209136
:102F7000D9033091DA03C901079697FD079623E03C
:102F8000959587952A95E1F72091D7033091D8033D
:102F9000829FA001839F500D929F500D112470E0DD
:102FA00060E08091F2039091F3030C943E280E941C
:102FB0003928FB0101900020E9F73197AF01461B4A
:102FC000570BDC01ED91FC910280F381E02D099417
:102FD0008F929F92AF92BF92EF92FF920F931F93A7
:102FE000CF93DF93CDB7DEB7A1970FB6F894DEBFCE
:102FF0000FBECDBF7C01FA01CB0119A2223008F42B
:103000002AE08E010F5D1F4F822E912CB12CA12C36
:10301000BF01A50194010E948624F901CA016A300A
:103020000CF5605DD8016E938D01232B242B252B8D
:1030300079F790E080E0109721F0BD01C7010E9470
:10304000D917A1960FB6F894DEBF0FBECDBFDF91A2
:10305000CF911F910F91FF90EF90BF90AF909F90F5
:103060008F900895695CDECF2F923F924F925F92CE
:103070006F927F928F929F92AF92BF92CF92DF9288
:10308000EF92FF921F93CF93DF93EC016A017B01D4
:10309000722EAB019601CB01B6010E94F52668E6BF
:1030A00071E0811126C046015701E894B7F82FEF6F
:1030B0003FEF4FE75FE7C501B4010E94F52681119C
:1030C0000CC02FEF3FEF4FE75FE7C501B4010E944F
:1030D00024256CE671E0181664F02FEF3FEF4FE700
:1030E0005FE4C701B6010E9483261816B4F460E7B6
:1030F00071E0CE01DF91CF911F91FF90EF90DF90B3
:10310000CF90BF90AF909F908F907F906F905F9087
:103110004F903F902F900C94D9172FEF3FEF4FE730
:103120005FECC701B6010E94242587FDE0CF20E0B7
:1031300030E0A901C701B6010E942425312C212CC1
:1031400087FF0DC0E881F9810190F081E02D6DE2EB
:10315000CE0109951C01F7FAF094F7F8F09410E00D
:1031600060E070E080E09FE3711641F020E030E025
:1031700040E251E40E9429251F5FF6CFA701960186
:103180000E94B8242B013C010E94A2254B015C0146
:103190002AE0BC01A401CE010E94E8177C01E20CE8
:1031A000F31C1123E1F1C501B4010E94D1259B015B
:1031B000AC01C301B2010E94B7244B015C01E8815C
:1031C000F9810190F081E02D6EE2CE010995E80EC3
:1031D000F91E115020F120E030E040E251E4C50139
:1031E000B4010E9488262B013C010E94A2254B01BC
:1031F000B12CA12C2AE0B501A401CE010E94E81750
:10320000E80EF91EC501B4010E94D1259B01AC0155
:10321000C301B2010E94B7244B015C01DACFC701A0
:10322000DF91CF911F91FF90EF90DF90CF90BF90F3
:10323000AF909F908F907F906F905F904F903F9056
:103240002F9008950F931F93CF93DF93EC010E946B
:10325000B6058C0164E771E0CE010E94D917800F9A
:10326000911FDF91CF911F910F91089585ED80936C
:10327000BC008091EA019091EB01A091EC01B0912A
:10328000ED010796A11DB11D23E0B695A795979571
:1032900087952A95D1F72091BC0024FD03C0109298
:1032A000330208954091EA015091EB016091EC01E5
:1032B0007091ED01452B462B472B69F30097A10533
:1032C000B10541F025E12A95F1F700000197A10928
:1032D000B109E1CF8091E9010C9440131F920F9244
:1032E0000FB60F9211242F933F934F935F936F93D9
:1032F0007F938F939F93AF93BF93EF93FF938AE056
:1033000093E00E945806FF91EF91BF91AF919F917A
:103310008F917F916F915F914F913F912F910F907E
:103320000FBE0F901F9018951F920F920FB60F921D
:1033300011242F938F939F93EF93FF93E0911A03A0
:10334000F0911B038081E0912003F091210382FD25
:103350001BC09081809123038F5F8F732091240382
:10336000821741F0E0912303F0E0E65FFC4F958F78
:1033700080932303FF91EF919F918F912F910F9055
:103380000FBE0F901F9018958081F4CF1F920F925F
:103390000FB60F9211242F933F938F939F93AF9368
:1033A000BF9380915A0290915B02A0915C02B09110
:1033B0005D023091590226E0230F2D3758F5029611
:1033C000A11DB11D2093590280935A0290935B0274
:1033D000A0935C02B0935D0280915E0290915F02C7
:1033E000A0916002B09161020196A11DB11D809370
:1033F0005E0290935F02A0936002B0936102BF915E
:10340000AF919F918F913F912F910F900FBE0F9091
:103410001F90189529E8230F0396A11DB11DD2CF47
:103420001F920F920FB60F9211242F933F934F9339
:103430005F936F937F938F939F93AF93BF93EF931C
:10344000FF938091B900887F803609F44AC0F0F577
:10345000883209F4A7C018F5803109F49BC0B8F48C
:10346000882309F4F9C0883009F494C0FF91EF91E2
:10347000BF91AF919F918F917F916F915F914F918C
:103480003F912F910F900FBE0F901F90189588318C
:1034900009F488C0803251F78093320214C080341E
:1034A00009F49DC040F48033B9F38833F9F6809372
:1034B000320285ECB0C0803509F485C0883509F446
:1034C00096C0883499F60E943619D0CF883909F40D
:1034D0008CC038F5883729F050F4883611F08037E1
:1034E00029F683E0809333021092310257C0883866
:1034F00009F47BC0803919F0803809F0B7CF80918A
:103500003102803208F071C0E091310281E08E0F0B
:10351000809331028091BB00F0E0EF5EFD4F80832D
:103520003DC0803B39F0E0F4803A09F479C0883A34
:1035300009F09CCF84E08093330210921002109225
:103540000F02E0916402F0916502099580910F02EB
:1035500081110FC081E080930F021092EF0109C02A
:10356000803C09F4A6CF883C09F4A3CF883B09F03E
:103570007DCFE091100281E08E0F80931002F0E089
:10358000E151FE4F80818093BB00909110028091A9
:103590000F0229C0809158028093BB0085EC809374
:1035A000BC0064CF9091570280915602981758F54D
:1035B000E091570281E08E0F80935702F0E0EA5CC1
:1035C000FD4F8081E9CFE091570281E08E0F80931B
:1035D00057028091BB00F0E0EA5CFD4F8083909140
:1035E0005702809156029817C8F285E8D8CFE0912B
:1035F000570281E08E0F809357028091BB00F0E06C
:10360000EA5CFD4F80838091350281115CCF81E0BF
:103610008093340284EA8093BC001092330226CF58
:1036200085EC8093BC00109233028091310280328D
:1036300030F4E0913102F0E0EF5EFD4F10826091D6
:10364000310270E0E0916202F091630281E192E068
:103650000995109231020ACF1092320234CF0F93A3
:103660001F93CF93DF93EAE0F3E01382128248EED8
:1036700053E060E070E044835583668377838CE198
:1036800091E09183808385EC90E09587848784EC3A
:1036900090E09787868780EC90E0918B808B81EC1F
:1036A00090E0938B828B82EC90E0958B848B86EC00
:1036B00090E0978B868B118E128E138E148EA7EC52
:1036C000B3E013961C921E92129714964D935D933D
:1036D0006D937C9317978EE291E011969C938E9355
:1036E000E3E1F4E010A211A212A213A240E050E024
:1036F0006AE774E4408351836283738300E010E0DF
:1037000028EC32E4048315832683378310861186E0
:10371000128613861486158616861786408B518B63
:10372000628B738BE3EDF3E01382128220E830E0CA
:103730003583248380E490E09783868331872087D4
:1037400093878287168A158614861786168611E057
:10375000158B148B8FEF9FEF938B828B918B808BCC
:10376000178B108E128E118E80E491E091838083EE
:10377000148E138EB68FA58F10A2178E8FEF84A391
:1037800085A386A387A380A740E85AE166E070E09E
:1037900045AB56AB67AB70AF40EA56E861E070E00E
:1037A00041AF52AF63AF74AF90E596AF17AFC8EAC1
:1037B000D3E09AE09B878E878D878C8787EA93E09A
:1037C000998388831B8E82E090E00E94142725E570
:1037D000FC01208311839B838A8380E492E4AFE021
:1037E000B0E08C839D83AE83BF8381E090E09987B6
:1037F000888784E08A871C8EDF91CF911F910F917B
:103800000895CF93DF9300D000D0CDB7DEB7789482
:1038100084B5826084BD84B5816084BD85B58260D5
:1038200085BD85B5816085BD80916E008160809386
:103830006E001092810080918100826080938100EF
:1038400080918100816080938100809180008160FF
:10385000809380008091B10084608093B10080915A
:10386000B00081608093B00080917A008460809382
:103870007A0080917A00826080937A0080917A0049
:103880008E7F80937A0080917A00806880937A009E
:103890001092C10060E08EE00E94390761E08EE086
:1038A0000E94670760E085E00E94390761E085E0DB
:1038B0000E94670761E084E00E94670761E084E09E
:1038C0000E94390761E08091B3030E94670761E0BD
:1038D0008091B3030E9439078091A8039091A903B6
:1038E000892B09F459C00E946E1781E08093C303AD
:1038F0008093C40360E082E00E948A0C60E180E073
:103900000E948A0C60E089E00E948A0C0E94FC0CF4
:103910001092C6031092C50380E00E94E60C20912D
:10392000C5033091C603682F2230310509F058C015
:103930006F7B606880E00E948A0C0E94FC0C61E052
:1039400085E00E9439078091F2039091F303892B5F
:1039500009F449C00E94B7172091D9033091DA03C6
:103960008091D7039091D803213231050CF061C1C9
:10397000B9016052710977FF02C06F5F7F4F759583
:1039800067958357910997FD019600E210E023E7C0
:1039900030E044EE55E060C161E08091B4030E94E4
:1039A00067078091B2038B7F60E009F061E080914E
:1039B000B4030E9439078091B5038F3F41F061E065
:1039C0000E94670761E08091B5030E9439078091EA
:1039D000B6038F3F09F489CF60E00E94670785CF67
:1039E0006F776064A7CF2091D9033091DA03C901C2
:1039F000079697FD0796B3E095958795BA95E1F7F9
:103A00002091D7033091D803AC01429FC001439F5E
:103A1000900D529F900D11240E9414279093F30350
:103A20008093F203892B09F095CF0E94E41560E0A2
:103A300085E00E94390764EF71E080E090E00E9429
:103A4000A2080E94B71781E08093E7038093E80300
:103A500081E090E09093E6038093E5039093E40384
:103A60008093E3031092E0031092DF031092E203CD
:103A70001092E10365EB7AE083ED93E00E94221956
:103A800065EA7AE083ED93E00E94221964E771E031
:103A900083ED93E00E94D91763E97AE083ED93E028
:103AA0000E94221964E771E083ED93E00E94D91728
:103AB00064E87AE083ED93E00E9422190E94E41505
:103AC00068EE73E080E090E00E94A2080E94B717C1
:103AD000E0911A03F0911B0382E08083E0911603CA
:103AE000F09117031082E0911803F091190388E018
:103AF000808310922203E0911E03F0911F0386E061
:103B00008083E0911C03F0911D038081806180839C
:103B1000E0911C03F0911D03808188608083E09117
:103B20001C03F0911D03808180688083E0911C0359
:103B3000F0911D0380818F7D808360E084E00E948E
:103B400039070E94D40860930203709303038093A3
:103B50000403909305030E94D4086093FE027093BF
:103B6000FF0280930003909301035AE9852E59E1E7
:103B7000952E56E1A52E53E4B52E42E3242E312C8A
:103B80000E94D408009102031091030320910403C2
:103B900030910503061717072807390708F0C3C235
:103BA000D901C80188519C4FAF4FBF4F809302038A
:103BB00090930303A0930403B09305034090F8028D
:103BC0005090F9026090FA027090FB028091C50358
:103BD0009091C603892B09F0F0C180E00E94E60CA9
:103BE0008F77682F606480E00E948A0C0E94D4085E
:103BF0006B017C018091C5039091C603029709F483
:103C0000DCC180E00E94E60C86FFD7C10E94D40888
:103C10006C197D098E099F096B3F7105810591051E
:103C200008F0A7C36AE070E080E090E00E94A2087C
:103C3000E1CFB9016054710977FF02C06F5F7F4F18
:103C4000759567958255910997FD019600E410E0FE
:103C500022E530E044EC57E0959587950E94EC1101
:103C600082E08093F5038091F0039091F103892B1A
:103C700009F4DFC08CE38093F40310926702109282
:103C8000660210920703109206030E94221384EB2F
:103C900095E0909365028093640285EB95E09093A4
:103CA0006302809362028091FB0387FD1EC061E086
:103CB0000E94670761E08091FB030E94390761E081
:103CC00070E080E090E00E94A20860E08091FB0339
:103CD0000E9439076AE070E080E090E00E94A2084C
:103CE00061E08091FB030E9439078091F00390917D
:103CF000F103892B09F42AC12091080430910904A9
:103D000040910A0450910B0460E072E18AE790E070
:103D10000E94862420513109410951095695479541
:103D2000379527952093B80064E08EEA95E00E94CD
:103D3000CD146091D903615083ED93E00E94821508
:103D400064E08AEA95E00E94CD148091F50360E179
:103D5000813009F064E183ED93E00E94821564E014
:103D600086EA95E00E94CD148FE88093100480913C
:103D7000D7039091D8038038910509F000C1809154
:103D8000D9039091DA038034910509F008C180913C
:103D9000F503813009F0F1C08FE98093100412E13E
:103DA0006AED83ED93E00E948215612F83ED93E02D
:103DB0000E94821561E883ED93E00E948215609174
:103DC000100483ED93E00E94821569ED83ED93E08A
:103DD0000E9482158091F50362E2813009F061EF63
:103DE00083ED93E00E94821566E080EA95E00E94F0
:103DF000CD148091F0039091F103892B09F4D3C085
:103E000020910C0430910D0440910E0450910F0448
:103E100060E072E18AE790E00E9486242051310937
:103E20004109510956954795379527952093B80034
:103E3000FCCD61E08091F9030E94670761E0809109
:103E4000FA030E9467078091F903082E000C990B72
:103E5000FC01E053FA4FE491F0E0EE0FFF1FEA534C
:103E6000FA4F259134913093010420930004FC0112
:103E7000EE54FA4FE491E09306048091FA03082E81
:103E8000000C990BFC01E053FA4FE491F0E0EE0FC7
:103E9000FF1FEA53FA4FA591B491B0930304A09386
:103EA0000204FC01EE54FA4FE491E09307048C9174
:103EB000E82BEC938091EE039091EF03892B19F09E
:103EC0000E946E17F0CE61E08091F7030E946707B1
:103ED00061E08091F8030E9467078091F703082E44
:103EE000000C990BFC01E053FA4FE491F0E0EE0F67
:103EF000FF1FEA53FA4F259134913093FD0320932D
:103F0000FC03FC01EE54FA4FE491E0930404809129
:103F1000F803082E000C990BFC01E053FA4FE491D2
:103F2000F0E0EE0FFF1FEA53FA4FA591B491B09362
:103F3000FF03A093FE03FC01EE54FA4FE491E093DB
:103F400005048C91E095E823EC93ADCE8091EE03CF
:103F50009091EF03892B31F080911104909112041C
:103F60000E94870CE0910204F091030490818091FB
:103F70000704809589238083D7CE8FEC0ECF8036BF
:103F8000910569F48091D9039091DA03409739F44F
:103F90008091F503813029F480E18093100412E0D0
:103FA000FFCE8FEAFACFE0910204F0910304808102
:103FB00090910704892B808338CD19821A821B8245
:103FC0008CE08C8343E050E0BE016F5F7F4FCE01F9
:103FD00004960E94AF0C69817A817627672776273D
:103FE000CB01B0E0A0E0BA2FA92F982F88272B8112
:103FF000822BA7FDBF6FBC01CD0125E0959587956C
:10400000779567952A95D1F70E94D32520E030E077
:1040100040E05CE30E94882626E636E646E65FE35B
:104020000E9488266B017C0120ED3CEC4CEC5DE3AA
:10403000C301B2010E9488269B01AC01C701B601F1
:104040000E94B8246093F8027093F9028093FA02F8
:104050009093FB028FE00E94E60C809368028091AF
:10406000790290917A02019709F088C184E00E9458
:10407000100761E0892B09F060E084E00E943907B5
:104080004091F0025091F1024F5F5F4F5093F10267
:104090004093F00270E060E02AE08AE093E00E9442
:1040A000E8176EEC7AE08AE093E00E94B605409152
:1040B000F8025091F9026091FA027091FB0222E03D
:1040C0008AE093E00E9434186CEC7AE08AE093E096
:1040D0000E94B6054091F4025091F5026091F602FB
:1040E0007091F70222E08AE093E00E94341864E7BE
:1040F00071E08AE093E00E94D9178091680287FD01
:1041000002C0882381F088E090E09093FD028093C4
:10411000FC0210927A021092790266EC7AE08AE050
:1041200093E00E9422190E94D408C090FE02D09011
:10413000FF02E0900003F0900103C616D706E806E0
:10414000F90608F05FC10091FC021091FD02D70151
:10415000C6018C599F4FAF4FBF4F8093FE02909383
:10416000FF02A0930003B09301030E94B71782E0FF
:104170008093E7038093E8031092E0031092DF033B
:104180001092E2031092E103000F111FF801EA5FA1
:10419000FE4F608171816115710521F083ED93E01F
:1041A0000E94D91781E08093E7038093E803E4E657
:1041B000F0E0F093E003E093DF031092E20310924B
:1041C000E10366EE7AE083ED93E00E94B60510927B
:1041D000E0031092DF0342E150E05093E20340938A
:1041E000E10362EE7AE083ED93E00E94B60510925F
:1041F000E0031092DF0384E290E09093E203809367
:10420000E1036EED7AE083ED93E00E94B605109233
:10421000E0031092DF03E6E3F0E0F093E203E093C3
:10422000E1036BED7AE083ED93E00E94B605EE24A6
:10423000E394F12C0FE310E022E130E042E150E0A2
:1042400062E170E083ED93E00E9471102FE730E0AF
:104250004FE350E062E170E083ED93E00E94711063
:104260008091FC029091FD02089709F08CC080E5D6
:1042700090E09093E0038093DF0389E090E09093D7
:10428000E2038093E10362ED7AE083ED93E00E9424
:10429000B6058091790290917A02019709F052C097
:1042A0004EE650E05093E0034093DF033092E20388
:1042B0002092E1034091F0025091F10270E060E041
:1042C0002AE083ED93E00E94E8172091F0023091FC
:1042D000F1028091EE029091EF028217930790F520
:1042E000C90165E070E00E94FA26892B59F500911A
:1042F000ED023093EF022093EE020E3618F5609136
:10430000F8027091F9028091FA029091FB0221E08B
:10431000200F2093ED0210E001581D4F0E949B25B5
:104320009B01AC01A4EDBFEF0E9481242AEF30E095
:1043300040E050E00E945424215C3F4F4F4F5F4FBC
:10434000F801208310E08091ED02181708F058C0A2
:10435000612F70E0FB01E158FD4F408150E06E5E3F
:104360007F4F21E030E083ED93E00E94D00B1F5F90
:10437000EACF60E070E080EC9FE74ECE60E084E042
:104380000E943907BACEC090F802D090F902E090AE
:10439000FA02F090FB0220E030E040E251E4C70175
:1043A000B6010E94242587FF1BC08BE590E0909307
:1043B000E0038093DF0389E090E09093E203809331
:1043C000E10322E0B701A60183ED93E00E943418D7
:1043D00067EF83ED93E00E94400F60ED7AE055CFE8
:1043E00020E030E048EC52E4C701B6010E942425E9
:1043F00087FF03C085E590E0DACF80E590E0D7CF76
:104400000E94E415E090FC02F090FD02F2E0EF164D
:10441000F10409F440C108F059C0E114F10409F4B1
:104420009EC051E0E516F10409F4EEC08091F2025D
:104430009091F302019771F48091790290917A0240
:10444000019741F410927A02109279021092FD02C3
:104450001092FC021092F3021092F20280916F020D
:10446000909170028130910509F4D8C108F4BCC163
:10447000029709F4F8C18091790290917A0261E083
:10448000019709F060E08EE00E9439070E94D4088D
:1044900000917B0210917C0220917D0230917E027E
:1044A000061717072807390720F460E085E00E9407
:1044B000390780E090E0892B09F462CB0E94440622
:1044C000882309F45ACB0E94000057CB84E0E816F9
:1044D000F10409F460C108F427C1E5E0EE16F10427
:1044E00009F0A4CFC090F802D090F902E090FA024F
:1044F000F090FB0220E030E0A901C701B6010E9464
:10450000E0086093F4027093F5028093F6029093B2
:10451000F70220E030E048EC52E4C701B6010E9407
:10452000242518160CF482CF0E94D40868517C4FC1
:104530008F4F9F4F60937B0270937C0280937D022C
:1045400090937E0261E085E00E94390710927A0222
:10455000109279021092FD021092FC0267CF009136
:10456000F2021091F3026091F8027091F9028091C9
:10457000FA029091FB0220E030E0A9010E94E008DD
:104580006093F4027093F5028093F6029093F70221
:104590000130110509F05ECF6BEE7AE08AE093E01E
:1045A0000E9422191092F1021092F0021092EF0272
:1045B0001092EE02EFE7F2E08FE6815011F01192D7
:1045C000FCCF1092ED020E94D4086C507E4F8F4FAA
:1045D0009F4F60937B0270937C0280937D02909347
:1045E0007E0261E085E00E94390781E090E09093CF
:1045F000FD028093FC02109227041092280410926E
:10460000290410922A0412CF4090F8025090F90227
:104610006090FA027090FB0220E030E046E153E443
:10462000C301B2010E94E0086093F4027093F502A6
:104630008093F6029093F702F0927A02E092790268
:1046400020E030E041E153E4C301B2010E9483263F
:1046500087FDECCE0E94D40868517C4F8F4F9F4F4E
:10466000609375027093760280937702909378023C
:1046700082E090E09093FD028093FC0280E090E065
:10468000A6E1B3E48093710290937202A093730247
:10469000B0937402CBCE20E030E04FE253E460915F
:1046A00071027091720280917302909174020E9463
:1046B000242587FF08C08092710290927202A09216
:1046C0007302B09274022091710230917202409193
:1046D0007302509174026091F8027091F902809116
:1046E000FA029091FB020E94E0086093F40270933A
:1046F000F5028093F6029093F7020E94D40800918D
:104700007502109176022091770230917802061797
:1047100017072807390708F089CE83E090E09093C7
:10472000FD028093FC0282CEC090F802D090F90284
:10473000E090FA02F090FB0220E030E046E653E41D
:10474000C701B6010E94E0086093F4027093F5027D
:104750008093F6029093F70220E030E041E653E4C4
:10476000C701B6010E94832687FD60CE84E090E0F9
:104770009093FD028093FC020E94D408605D7A4809
:104780008F4F9F4F609375027093760280937702EC
:10479000909378024BCE6091F8027091F90280916B
:1047A000FA029091FB0220E030E046E653E40E94DA
:1047B000E0086093F4027093F5028093F602909300
:1047C000F7020E94D40800917502109176022091A0
:1047D000770230917802061717072807390708F083
:1047E00025CE85E090E09BCF0E94A417009709F4A6
:1047F00042CE90936E0280936D020E94D408609323
:10480000690270936A0280936B0290936C0281E05C
:1048100090E09093700280936F022DCE0E94A417B7
:104820008C0180916D0290916E020817190701F5B5
:104830000E94D408C0906902D0906A02E0906B0296
:10484000F0906C026C197D098E099F09653671051F
:104850008105910508F40FCE1093F3020093F20244
:1048600082E090E0D6CF0E94A417892B09F003CEF6
:104870001092700210926F02FECD8091AA03909167
:10488000AB03009711F00E94B02780E491E0909371
:10489000D4038093D3038091F2039091F3030097A4
:1048A00011F00C94B0270895052E97FB1EF4009488
:1048B0000E946B2457FD07D00E94862407FC03D07A
:1048C0004EF40C946B2450954095309521953F4FB4
:1048D0004F4F5F4F089590958095709561957F4FEC
:1048E0008F4F9F4F08950E94A824A59F900DB49FBD
:1048F000900DA49F800D911D11240895B7FF0C9475
:1049000073240E947324821B930B0895A1E21A2E34
:10491000AA1BBB1BFD010DC0AA1FBB1FEE1FFF1F63
:10492000A217B307E407F50720F0A21BB30BE40BB3
:10493000F50B661F771F881F991F1A9469F76095FA
:104940007095809590959B01AC01BD01CF010895B4
:10495000A29FB001B39FC001A39F700D811D1124C0
:10496000911DB29F700D811D1124911D0895505805
:10497000BB27AA270E94CF240C9449260E943B26DD
:1049800038F00E94422620F039F49F3F19F426F4B3
:104990000C9438260EF4E095E7FB0C943226E92FB0
:1049A0000E945A2658F3BA176207730784079507BF
:1049B00020F079F4A6F50C947C260EF4E0950B2EED
:1049C000BA2FA02D0B01B90190010C01CA01A00161
:1049D0001124FF27591B99F0593F50F4503E68F1BC
:1049E0001A16F040A22F232F342F4427585FF3CFFD
:1049F000469537952795A795F0405395C9F77EF4CE
:104A00001F16BA0B620B730B840BBAF09150A1F016
:104A1000FF0FBB1F661F771F881FC2F70EC0BA0F9C
:104A2000621F731F841F48F4879577956795B79524
:104A3000F7959E3F08F0B0CF9395880F08F099271F
:104A4000EE0F9795879508950E940E2608F481E051
:104A500008950E943D250C9449260E94422658F054
:104A60000E943B2640F029F45F3F29F00C94322647
:104A700051110C947D260C9438260E945A2668F316
:104A80009923B1F3552391F3951B550BBB27AA2707
:104A900062177307840738F09F5F5F4F220F331F41
:104AA000441FAA1FA9F335D00E2E3AF0E0E832D009
:104AB00091505040E695001CCAF72BD0FE2F29D00C
:104AC000660F771F881FBB1F261737074807AB07DE
:104AD000B0E809F0BB0B802DBF01FF2793585F4F53
:104AE0003AF09E3F510578F00C9432260C947D26C6
:104AF0005F3FE4F3983ED4F3869577956795B79535
:104B0000F7959F5FC9F7880F911D9695879597F93F
:104B10000895E1E0660F771F881FBB1F62177307B8
:104B20008407BA0720F0621B730B840BBA0BEE1FCD
:104B300088F7E09508950E94A2256894B1110C941D
:104B40007D2608950E94622688F09F5798F0B92F1D
:104B50009927B751B0F0E1F0660F771F881F991FB2
:104B60001AF0BA95C9F714C0B13091F00E947C26B2
:104B7000B1E008950C947C26672F782F8827B85FC2
:104B800039F0B93FCCF3869577956795B395D9F70A
:104B90003EF490958095709561957F4F8F4F9F4F14
:104BA0000895E89409C097FB3EF490958095709520
:104BB00061957F4F8F4F9F4F9923A9F0F92F96E969
:104BC000BB279395F695879577956795B795F111DE
:104BD000F8CFFAF4BB0F11F460FF1BC06F5F7F4F7B
:104BE0008F4F9F4F16C0882311F096E911C077238D
:104BF00021F09EE8872F762F05C0662371F096E896
:104C0000862F70E060E02AF09A95660F771F881F64
:104C1000DAF7880F9695879597F90895990F000808
:104C2000550FAA0BE0E8FEEF16161706E807F9077E
:104C3000C0F012161306E407F50798F0621B730B19
:104C4000840B950B39F40A2661F0232B242B252B9A
:104C500021F408950A2609F4A140A6958FEF811D3D
:104C6000811D089597F99F6780E870E060E00895DE
:104C70009FEF80EC089500240A9416161706180674
:104C80000906089500240A94121613061406050650
:104C90000895092E0394000C11F4882352F0BB0FE1
:104CA00040F4BF2B11F460FF04C06F5F7F4F8F4F44
:104CB0009F4F089557FD9058440F551F59F05F3F7F
:104CC00071F04795880F97FB991F61F09F3F79F02E
:104CD00087950895121613061406551FF2CF4695B0
:104CE000F1DF08C0161617061806991FF1CF869532
:104CF0007105610508940895E894BB276627772716
:104D0000CB0197F908950E940E2608F48FEF0895BD
:104D10000E949B260C9449260E943B2638F00E9454
:104D2000422620F0952311F00C9432260C9438265C
:104D300011240C947D260E945A2670F3959FC1F38E
:104D4000950F50E0551F629FF001729FBB27F00D39
:104D5000B11D639FAA27F00DB11DAA1F649F66278E
:104D6000B00DA11D661F829F2227B00DA11D621FDD
:104D7000739FB00DA11D621F839FA00D611D221F97
:104D8000749F3327A00D611D231F849F600D211D7B
:104D9000822F762F6A2F11249F5750409AF0F1F0FE
:104DA00088234AF0EE0FFF1FBB1F661F771F881F67
:104DB00091505040A9F79E3F510580F00C94322647
:104DC0000C947D265F3FE4F3983ED4F38695779567
:104DD0006795B795F795E7959F5FC1F7FE2B880F0D
:104DE000911D9695879597F908950E940E26880B38
:104DF000990B0895AA1BBB1B51E107C0AA1FBB1F3B
:104E0000A617B70710F0A61BB70B881F991F5A9556
:104E1000A9F780959095BC01CD010895EE0FFF1F75
:104E20000590F491E02D09940F931F93CF93DF9396
:104E30008230910510F482E090E0E0913904F09125
:104E40003A0430E020E0B0E0A0E0309799F421157A
:104E5000310509F44AC0281B390B24303105D8F537
:104E60008A819B816115710589F1FB01938382839E
:104E7000FE0111C0408151810281138148175907F9
:104E8000E0F04817590799F4109761F012960C93C7
:104E9000129713961C933296CF01DF91CF911F91F9
:104EA0000F9108950093390410933A04F4CF21151B
:104EB000310551F04217530738F0A901DB019A017F
:104EC000BD01DF01F801C1CFEF01F9CF90933A04A2
:104ED00080933904CDCFFE01E20FF31F81939193AC
:104EE0002250310939832883D7CF2091370430915C
:104EF0003804232B41F420910201309103013093B7
:104F000038042093370420910001309101012115CC
:104F1000310541F42DB73EB7409104015091050190
:104F2000241B350BE0913704F0913804E217F307A6
:104F3000A0F42E1B3F0B2817390778F0AC014E5F09
:104F40005F4F2417350748F04E0F5F1F509338040A
:104F500040933704819391939FCFF0E0E0E09CCFA2
:104F6000CF93DF930097E9F0FC013297138212820E
:104F7000A0913904B0913A04ED0130E020E010979F
:104F8000A1F420813181820F931F20913704309149
:104F900038042817390709F061C0F0933804E0930A
:104FA0003704DF91CF910895EA01CE17DF07E8F5C6
:104FB0004A815B819E0141155105B1F7E901FB83EF
:104FC000EA8349915991C40FD51FEC17FD0761F48D
:104FD000808191810296840F951FE90199838883CE
:104FE000828193819B838A83F0E0E0E012968D9129
:104FF0009C9113970097B9F52D913C911197CD0194
:105000000296820F931F209137043091380428179D
:10501000390739F6309751F510923A041092390455
:10502000B0933804A0933704BCCFD383C2834081AC
:105030005181840F951FC817D90761F44E5F5F4FE8
:1050400088819981480F591F518340838A819B81B0
:10505000938382832115310509F0B0CFF0933A0490
:10506000E09339049ECFFD01DC01C0CF1382128290
:10507000D7CF81E090E0F8940C944528DC0101C082
:105080006D9341505040E0F7089515E0C8E8D5E031
:1050900004C0FE010E940E272196C938D107C9F726
:0450A000F894FFCFB2
:1050A40000003B04800077017C01800185018C01B4
:1050B400910196019C01A101000000007A06DA0525
:1050C4000706C706380616062A0600000000B713AE
:1050D4008A136B17B3058313701361130000000068
:1050E400400FDA056B17FA12D00BB305E511BD11A9
:1050F400D911CD114D12B305060D1517400B890BAF
:105104000611E910711012106E616E00696E66006E
:105114006F7666000D0A0049646C65005072650084
:10512400536F616B005265666C6F7700486F6C64F7
:1051340000436F6F6C00446F6E652100486F7421EB
:08514400004572726F72000059
:00000001FF
